:0E0000000C942A000C9400000C9400000C9448
:10000E0000000C9400000C9400000C9400000C9462
:10001E0000000C9400000C9400000C9400000C9452
:10002E0000000C9400000C9400000C9400000C9442
:10003E0000000C9400000C9400000C9400000C9432
:10004E0000000C940000F894EE27ECBBF1E0F5BF35
:10005E00E5BF8DE0A2E0BB27ED938A95E9F780E03E
:10006E0098E0A0E6ED930197E9F7EFE5EDBFE8E044
:10007E00EEBFC0E6D2E00C944400E7E0E7BBE7E059
:10008E0008D0E3E006D0E1E004D0E0E002D0F7CF04
:10009E00FFCFE8BBA8EEB3E00C945500109639F0F4
:1000AE00A89580ED97E00197F1F71197C9F708959C
:00000001FF
